{
  "contractName": "adoption",
  "abi": [
    {
      "constant": true,
      "inputs": [
        {
          "name": "",
          "type": "uint256"
        }
      ],
      "name": "adopters",
      "outputs": [
        {
          "name": "",
          "type": "address"
        }
      ],
      "payable": false,
      "stateMutability": "view",
      "type": "function"
    },
    {
      "constant": true,
      "inputs": [],
      "name": "getAdopters",
      "outputs": [
        {
          "name": "",
          "type": "address[16]"
        }
      ],
      "payable": false,
      "stateMutability": "view",
      "type": "function"
    },
    {
      "constant": false,
      "inputs": [
        {
          "name": "petId",
          "type": "uint256"
        },
        {
          "name": "userAddress",
          "type": "address"
        }
      ],
      "name": "adopt",
      "outputs": [
        {
          "name": "",
          "type": "uint256"
        }
      ],
      "payable": false,
      "stateMutability": "nonpayable",
      "type": "function"
    },
    {
      "constant": true,
      "inputs": [
        {
          "name": "petId",
          "type": "uint256"
        }
      ],
      "name": "getAdopter",
      "outputs": [
        {
          "name": "",
          "type": "address"
        }
      ],
      "payable": false,
      "stateMutability": "view",
      "type": "function"
    }
  ],
  "bytecode": "0x608060405234801561001057600080fd5b50610381806100206000396000f3fe608060405234801561001057600080fd5b506004361061004c5760003560e01c80630689093d146100515780633de4eb17146100b357806343ae80d3146100f9578063a733829714610167575b600080fd5b61009d6004803603604081101561006757600080fd5b8101908080359060200190929190803573ffffffffffffffffffffffffffffffffffffffff1690602001909291905050506101d5565b6040518082815260200191505060405180910390f35b6100bb610247565b6040518082601060200280838360005b838110156100e65780820151818401526020810190506100cb565b5050505090500191505060405180910390f35b6101256004803603602081101561010f57600080fd5b81019080803590602001909291905050506102c8565b604051808273ffffffffffffffffffffffffffffffffffffffff1673ffffffffffffffffffffffffffffffffffffffff16815260200191505060405180910390f35b6101936004803603602081101561017d57600080fd5b81019080803590602001909291905050506102fb565b604051808273ffffffffffffffffffffffffffffffffffffffff1673ffffffffffffffffffffffffffffffffffffffff16815260200191505060405180910390f35b60008083101580156101e85750600f8311155b6101f157600080fd5b81600084601081106101ff57fe5b0160006101000a81548173ffffffffffffffffffffffffffffffffffffffff021916908373ffffffffffffffffffffffffffffffffffffffff16021790555082905092915050565b61024f610332565b60006010806020026040519081016040528092919082601080156102be576020028201915b8160009054906101000a900473ffffffffffffffffffffffffffffffffffffffff1673ffffffffffffffffffffffffffffffffffffffff1681526020019060010190808311610274575b5050505050905090565b600081601081106102d557fe5b016000915054906101000a900473ffffffffffffffffffffffffffffffffffffffff1681565b600080826010811061030957fe5b0160009054906101000a900473ffffffffffffffffffffffffffffffffffffffff169050919050565b60405180610200016040528060109060208202803883398082019150509050509056fea165627a7a72305820768e948996821cf229fbc6b02ad695b3ec0d724353168e1ffb9f3ffb92038e190029",
  "source": "pragma solidity ^0.5.0;\n\n\ncontract adoption {\n address[16] public adopters;\n\n function getAdopters() public view returns(address[16] memory){\n   return adopters;\n }\n\n function adopt(uint petId, address userAddress) public returns(uint){\n   require(petId>=0 && petId<=15);\n   adopters[petId] = userAddress;\n   return petId;\n }\n\n  function getAdopter(uint petId) public view returns(address){\n    return adopters[petId];\n  }\n\n\n}\n",
  "sourcePath": "/Users/harry/Desktop/test/pet-shop/contracts/adoption.sol",
  "compiler": {
    "name": "solc",
    "version": "0.5.8+commit.23d335f2.Emscripten.clang"
  },
  "schemaVersion": "3.0.12",
  "updatedAt": "2019-08-27T14:05:35.839Z",
  "devdoc": {
    "methods": {}
  },
  "userdoc": {
    "methods": {}
  }
}